{
  "contractName": "Lottery",
  "abi": [
    {
      "inputs": [
        {
          "internalType": "uint64",
          "name": "subscriptionId",
          "type": "uint64"
        }
      ],
      "stateMutability": "nonpayable",
      "type": "constructor"
    },
    {
      "inputs": [
        {
          "internalType": "address",
          "name": "have",
          "type": "address"
        },
        {
          "internalType": "address",
          "name": "want",
          "type": "address"
        }
      ],
      "name": "OnlyCoordinatorCanFulfill",
      "type": "error"
    },
    {
      "inputs": [],
      "name": "lotteryId",
      "outputs": [
        {
          "internalType": "uint256",
          "name": "",
          "type": "uint256"
        }
      ],
      "stateMutability": "view",
      "type": "function",
      "constant": true
    },
    {
      "inputs": [
        {
          "internalType": "uint256",
          "name": "",
          "type": "uint256"
        }
      ],
      "name": "map",
      "outputs": [
        {
          "internalType": "address payable",
          "name": "",
          "type": "address"
        }
      ],
      "stateMutability": "view",
      "type": "function",
      "constant": true
    },
    {
      "inputs": [],
      "name": "owner",
      "outputs": [
        {
          "internalType": "address",
          "name": "",
          "type": "address"
        }
      ],
      "stateMutability": "view",
      "type": "function",
      "constant": true
    },
    {
      "inputs": [
        {
          "internalType": "uint256",
          "name": "",
          "type": "uint256"
        }
      ],
      "name": "players",
      "outputs": [
        {
          "internalType": "address payable",
          "name": "",
          "type": "address"
        }
      ],
      "stateMutability": "view",
      "type": "function",
      "constant": true
    },
    {
      "inputs": [
        {
          "internalType": "uint256",
          "name": "requestId",
          "type": "uint256"
        },
        {
          "internalType": "uint256[]",
          "name": "randomWords",
          "type": "uint256[]"
        }
      ],
      "name": "rawFulfillRandomWords",
      "outputs": [],
      "stateMutability": "nonpayable",
      "type": "function"
    },
    {
      "inputs": [
        {
          "internalType": "uint256",
          "name": "",
          "type": "uint256"
        }
      ],
      "name": "s_randomWords",
      "outputs": [
        {
          "internalType": "uint256",
          "name": "",
          "type": "uint256"
        }
      ],
      "stateMutability": "view",
      "type": "function",
      "constant": true
    },
    {
      "inputs": [],
      "name": "s_requestId",
      "outputs": [
        {
          "internalType": "uint256",
          "name": "",
          "type": "uint256"
        }
      ],
      "stateMutability": "view",
      "type": "function",
      "constant": true
    },
    {
      "inputs": [],
      "name": "requestRandomWords",
      "outputs": [],
      "stateMutability": "nonpayable",
      "type": "function"
    },
    {
      "inputs": [
        {
          "internalType": "uint256",
          "name": "Lid",
          "type": "uint256"
        }
      ],
      "name": "getLotteryHistory",
      "outputs": [
        {
          "internalType": "address payable",
          "name": "",
          "type": "address"
        }
      ],
      "stateMutability": "view",
      "type": "function",
      "constant": true
    },
    {
      "inputs": [],
      "name": "enter",
      "outputs": [],
      "stateMutability": "payable",
      "type": "function",
      "payable": true
    },
    {
      "inputs": [],
      "name": "getBalance",
      "outputs": [
        {
          "internalType": "uint256",
          "name": "",
          "type": "uint256"
        }
      ],
      "stateMutability": "view",
      "type": "function",
      "constant": true
    },
    {
      "inputs": [],
      "name": "getplayers",
      "outputs": [
        {
          "internalType": "address payable[]",
          "name": "",
          "type": "address[]"
        }
      ],
      "stateMutability": "view",
      "type": "function",
      "constant": true
    },
    {
      "inputs": [],
      "name": "payWinner",
      "outputs": [],
      "stateMutability": "nonpayable",
      "type": "function"
    }
  ],
  "bytecode": "0x60a0604052736168499c0cffcacd319c818142124b7a15e857ab600160006101000a81548173ffffffffffffffffffffffffffffffffffffffff021916908373ffffffffffffffffffffffffffffffffffffffff1602179055507fd89b2bf150e3b9e13446986e571fb9cab24b13cea0a43ea20a6049a85cc807cc60001b600255620186a0600360006101000a81548163ffffffff021916908363ffffffff16021790555060038060046101000a81548161ffff021916908361ffff1602179055506001600360066101000a81548163ffffffff021916908363ffffffff1602179055503480156100ef57600080fd5b506040516200136a3803806200136a83398181016040528101906101139190610282565b600160009054906101000a900473ffffffffffffffffffffffffffffffffffffffff168073ffffffffffffffffffffffffffffffffffffffff1660808173ffffffffffffffffffffffffffffffffffffffff168152505050600160009054906101000a900473ffffffffffffffffffffffffffffffffffffffff166000806101000a81548173ffffffffffffffffffffffffffffffffffffffff021916908373ffffffffffffffffffffffffffffffffffffffff16021790555033600660006101000a81548173ffffffffffffffffffffffffffffffffffffffff021916908373ffffffffffffffffffffffffffffffffffffffff16021790555080600060146101000a81548167ffffffffffffffff021916908367ffffffffffffffff160217905550506102af565b600080fd5b600067ffffffffffffffff82169050919050565b61025f81610242565b811461026a57600080fd5b50565b60008151905061027c81610256565b92915050565b6000602082840312156102985761029761023d565b5b60006102a68482850161026d565b91505092915050565b608051611098620002d2600039600081816102fd015261035101526110986000f3fe6080604052600436106100c25760003560e01c8063e0c862891161007f578063e97dcb6211610059578063e97dcb6214610244578063ecb3db521461024e578063f6eaffc814610279578063f71d96cb146102b6576100c2565b8063e0c86289146101d7578063e580f47b146101ee578063e89e106a14610219576100c2565b806312065fe0146100c75780631fe543e3146100f25780632a3a05711461011b5780638da5cb5b14610158578063b8dda9c714610183578063be71248a146101c0575b600080fd5b3480156100d357600080fd5b506100dc6102f3565b6040516100e99190610a63565b60405180910390f35b3480156100fe57600080fd5b5061011960048036038101906101149190610c17565b6102fb565b005b34801561012757600080fd5b50610142600480360381019061013d9190610c73565b6103bb565b60405161014f9190610ce1565b60405180910390f35b34801561016457600080fd5b5061016d6103f8565b60405161017a9190610d1d565b60405180910390f35b34801561018f57600080fd5b506101aa60048036038101906101a59190610c73565b61041e565b6040516101b79190610ce1565b60405180910390f35b3480156101cc57600080fd5b506101d5610451565b005b3480156101e357600080fd5b506101ec610673565b005b3480156101fa57600080fd5b506102036107c5565b6040516102109190610a63565b60405180910390f35b34801561022557600080fd5b5061022e6107cb565b60405161023b9190610a63565b60405180910390f35b61024c6107d1565b005b34801561025a57600080fd5b5061026361084a565b6040516102709190610df6565b60405180910390f35b34801561028557600080fd5b506102a0600480360381019061029b9190610c73565b6108d8565b6040516102ad9190610a63565b60405180910390f35b3480156102c257600080fd5b506102dd60048036038101906102d89190610c73565b6108fc565b6040516102ea9190610ce1565b60405180910390f35b600047905090565b7f000000000000000000000000000000000000000000000000000000000000000073ffffffffffffffffffffffffffffffffffffffff163373ffffffffffffffffffffffffffffffffffffffff16146103ad57337f00000000000000000000000000000000000000000000000000000000000000006040517f1cf993f40000000000000000000000000000000000000000000000000000000081526004016103a4929190610e18565b60405180910390fd5b6103b7828261093b565b5050565b60006007600083815260200190815260200160002060009054906101000a900473ffffffffffffffffffffffffffffffffffffffff169050919050565b600660009054906101000a900473ffffffffffffffffffffffffffffffffffffffff1681565b60076020528060005260406000206000915054906101000a900473ffffffffffffffffffffffffffffffffffffffff1681565b600660009054906101000a900473ffffffffffffffffffffffffffffffffffffffff1673ffffffffffffffffffffffffffffffffffffffff163373ffffffffffffffffffffffffffffffffffffffff16146104ab57600080fd5b600060088054905060046000815481106104c8576104c7610e41565b5b90600052602060002001546104dd9190610e9f565b9050600881815481106104f3576104f2610e41565b5b9060005260206000200160009054906101000a900473ffffffffffffffffffffffffffffffffffffffff1673ffffffffffffffffffffffffffffffffffffffff166108fc479081150290604051600060405180830381858888f19350505050158015610563573d6000803e3d6000fd5b506008818154811061057857610577610e41565b5b9060005260206000200160009054906101000a900473ffffffffffffffffffffffffffffffffffffffff1660076000600954815260200190815260200160002060006101000a81548173ffffffffffffffffffffffffffffffffffffffff021916908373ffffffffffffffffffffffffffffffffffffffff160217905550600067ffffffffffffffff81111561061157610610610ad4565b5b60405190808252806020026020018201604052801561063f5781602001602082028036833780820191505090505b5060089080519060200190610655929190610956565b506001600960008282546106699190610eff565b9250508190555050565b600660009054906101000a900473ffffffffffffffffffffffffffffffffffffffff1673ffffffffffffffffffffffffffffffffffffffff163373ffffffffffffffffffffffffffffffffffffffff16146106cd57600080fd5b60008054906101000a900473ffffffffffffffffffffffffffffffffffffffff1673ffffffffffffffffffffffffffffffffffffffff16635d3b1d30600254600060149054906101000a900467ffffffffffffffff16600360049054906101000a900461ffff16600360009054906101000a900463ffffffff16600360069054906101000a900463ffffffff166040518663ffffffff1660e01b815260040161077a959493929190610fcd565b6020604051808303816000875af1158015610799573d6000803e3d6000fd5b505050506040513d601f19601f820116820180604052508101906107bd9190611035565b600581905550565b60095481565b60055481565b67016345785d8a000034146107e557600080fd5b6008339080600181540180825580915050600190039060005260206000200160009091909190916101000a81548173ffffffffffffffffffffffffffffffffffffffff021916908373ffffffffffffffffffffffffffffffffffffffff160217905550565b606060088054806020026020016040519081016040528092919081815260200182805480156108ce57602002820191906000526020600020905b8160009054906101000a900473ffffffffffffffffffffffffffffffffffffffff1673ffffffffffffffffffffffffffffffffffffffff1681526020019060010190808311610884575b5050505050905090565b600481815481106108e857600080fd5b906000526020600020016000915090505481565b6008818154811061090c57600080fd5b906000526020600020016000915054906101000a900473ffffffffffffffffffffffffffffffffffffffff1681565b80600490805190602001906109519291906109e0565b505050565b8280548282559060005260206000209081019282156109cf579160200282015b828111156109ce5782518260006101000a81548173ffffffffffffffffffffffffffffffffffffffff021916908373ffffffffffffffffffffffffffffffffffffffff16021790555091602001919060010190610976565b5b5090506109dc9190610a2d565b5090565b828054828255906000526020600020908101928215610a1c579160200282015b82811115610a1b578251825591602001919060010190610a00565b5b509050610a299190610a2d565b5090565b5b80821115610a46576000816000905550600101610a2e565b5090565b6000819050919050565b610a5d81610a4a565b82525050565b6000602082019050610a786000830184610a54565b92915050565b6000604051905090565b600080fd5b600080fd5b610a9b81610a4a565b8114610aa657600080fd5b50565b600081359050610ab881610a92565b92915050565b600080fd5b6000601f19601f8301169050919050565b7f4e487b7100000000000000000000000000000000000000000000000000000000600052604160045260246000fd5b610b0c82610ac3565b810181811067ffffffffffffffff82111715610b2b57610b2a610ad4565b5b80604052505050565b6000610b3e610a7e565b9050610b4a8282610b03565b919050565b600067ffffffffffffffff821115610b6a57610b69610ad4565b5b602082029050602081019050919050565b600080fd5b6000610b93610b8e84610b4f565b610b34565b90508083825260208201905060208402830185811115610bb657610bb5610b7b565b5b835b81811015610bdf5780610bcb8882610aa9565b845260208401935050602081019050610bb8565b5050509392505050565b600082601f830112610bfe57610bfd610abe565b5b8135610c0e848260208601610b80565b91505092915050565b60008060408385031215610c2e57610c2d610a88565b5b6000610c3c85828601610aa9565b925050602083013567ffffffffffffffff811115610c5d57610c5c610a8d565b5b610c6985828601610be9565b9150509250929050565b600060208284031215610c8957610c88610a88565b5b6000610c9784828501610aa9565b91505092915050565b600073ffffffffffffffffffffffffffffffffffffffff82169050919050565b6000610ccb82610ca0565b9050919050565b610cdb81610cc0565b82525050565b6000602082019050610cf66000830184610cd2565b92915050565b6000610d0782610ca0565b9050919050565b610d1781610cfc565b82525050565b6000602082019050610d326000830184610d0e565b92915050565b600081519050919050565b600082825260208201905092915050565b6000819050602082019050919050565b610d6d81610cc0565b82525050565b6000610d7f8383610d64565b60208301905092915050565b6000602082019050919050565b6000610da382610d38565b610dad8185610d43565b9350610db883610d54565b8060005b83811015610de9578151610dd08882610d73565b9750610ddb83610d8b565b925050600181019050610dbc565b5085935050505092915050565b60006020820190508181036000830152610e108184610d98565b905092915050565b6000604082019050610e2d6000830185610d0e565b610e3a6020830184610d0e565b9392505050565b7f4e487b7100000000000000000000000000000000000000000000000000000000600052603260045260246000fd5b7f4e487b7100000000000000000000000000000000000000000000000000000000600052601260045260246000fd5b6000610eaa82610a4a565b9150610eb583610a4a565b925082610ec557610ec4610e70565b5b828206905092915050565b7f4e487b7100000000000000000000000000000000000000000000000000000000600052601160045260246000fd5b6000610f0a82610a4a565b9150610f1583610a4a565b9250827fffffffffffffffffffffffffffffffffffffffffffffffffffffffffffffffff03821115610f4a57610f49610ed0565b5b828201905092915050565b6000819050919050565b610f6881610f55565b82525050565b600067ffffffffffffffff82169050919050565b610f8b81610f6e565b82525050565b600061ffff82169050919050565b610fa881610f91565b82525050565b600063ffffffff82169050919050565b610fc781610fae565b82525050565b600060a082019050610fe26000830188610f5f565b610fef6020830187610f82565b610ffc6040830186610f9f565b6110096060830185610fbe565b6110166080830184610fbe565b9695505050505050565b60008151905061102f81610a92565b92915050565b60006020828403121561104b5761104a610a88565b5b600061105984828501611020565b9150509291505056fea26469706673582212209f2458974972f66a2915e9d3693528daa5ac30b9dca27abc77181f6ff2804a0a64736f6c634300080b0033",
  "immutableReferences": {
    "10": [
      {
        "length": 32,
        "start": 765
      },
      {
        "length": 32,
        "start": 849
      }
    ]
  },
  "source": "// SPDX-License-Identifier: MIT\r\n// An example of a consumer contract that relies on a subscription for funding.\r\npragma solidity ^0.8.7;\r\n\r\nimport \"@chainlink/contracts/src/v0.8/interfaces/VRFCoordinatorV2Interface.sol\";\r\nimport \"@chainlink/contracts/src/v0.8/VRFConsumerBaseV2.sol\";\r\n\r\ncontract Lottery is VRFConsumerBaseV2 {\r\n  VRFCoordinatorV2Interface COORDINATOR;\r\n\r\n  uint64 s_subscriptionId;\r\n  address vrfCoordinator = 0x6168499c0cFfCaCD319c818142124B7A15E857ab;\r\n\r\n  bytes32 keyHash = 0xd89b2bf150e3b9e13446986e571fb9cab24b13cea0a43ea20a6049a85cc807cc;\r\n  uint32 callbackGasLimit = 100000;\r\n  uint16 requestConfirmations = 3;\r\n  uint32 numWords =  1;\r\n\r\n  uint256[] public s_randomWords;\r\n  uint256 public s_requestId;\r\n  address public owner;\r\n  mapping(uint => address payable) public map;\r\n\r\n  constructor(uint64 subscriptionId) VRFConsumerBaseV2(vrfCoordinator) {\r\n    COORDINATOR = VRFCoordinatorV2Interface(vrfCoordinator);\r\n    owner = msg.sender;\r\n    s_subscriptionId = subscriptionId;\r\n  }\r\n\r\n  \r\n\r\n  function requestRandomWords() external onlyOwner {\r\n    s_requestId = COORDINATOR.requestRandomWords(\r\n      keyHash,\r\n      s_subscriptionId,\r\n      requestConfirmations,\r\n      callbackGasLimit,\r\n      numWords\r\n    );\r\n  }\r\n  \r\n  function fulfillRandomWords(\r\n    uint256, /* requestId */\r\n    uint256[] memory randomWords\r\n  ) internal override {\r\n    s_randomWords = randomWords;\r\n  }\r\n\r\n\r\n\r\n  \r\n\r\n  address payable[] public players;\r\n  uint public lotteryId;\r\n\r\n  function getLotteryHistory(uint Lid) public view returns(address payable){\r\n    return map[Lid];\r\n  } \r\n\r\n  function enter() public payable{\r\n    require(msg.value == 0.1 ether);\r\n    players.push(payable(msg.sender));\r\n  }\r\n\r\n  function getBalance() public view returns(uint256){\r\n    return address(this).balance;\r\n  }\r\n\r\n  function getplayers() public view returns(address payable[] memory){\r\n    return players;\r\n  }\r\n\r\n\r\n  function payWinner() public onlyOwner{\r\n    uint index = s_randomWords[0] % players.length;\r\n    players[index].transfer(address(this).balance);\r\n    map[lotteryId] = players[index];\r\n\r\n    players = new  address  payable[](0);\r\n    lotteryId += 1;\r\n    \r\n    \r\n  }\r\n\r\n  \r\n\r\n\r\n\r\n\r\n\r\n  modifier onlyOwner() {\r\n\r\n    require(msg.sender == owner);\r\n    _;\r\n  }\r\n}\r\n\r\n",
  "sourcePath": "C:\\Users\\91892\\Desktop\\Lottery\\lottery-truffle\\contracts\\Lottery.sol",
  "compiler": {
    "name": "solc",
    "version": "0.8.11+commit.d7f03943.Emscripten.clang"
  },
  "schemaVersion": "3.4.8",
  "updatedAt": "2022-07-23T06:30:01.239Z",
  "networkType": "ethereum",
  "devdoc": {
    "kind": "dev",
    "methods": {},
    "version": 1
  },
  "userdoc": {
    "kind": "user",
    "methods": {},
    "version": 1
  }
}